:020000040800F2
:1000000000500020D90700086107000869070008B0
:100010007107000879070008810700080000000048
:100020000000000000000000000000008907000838
:100030009507000800000000A1070008AD070008B0
:1000400021080008210800082108000821080008EC
:1000500021080008210800082108000821080008DC
:10006000210800082108000821080008B907000835
:1000700021080008210800082108000821080008BC
:1000800021080008210800082108000821080008AC
:10009000210800082108000821080008210800089C
:1000A000210800082108000821080008210800088C
:1000B000210800082108000821080008210800087C
:1000C000210800082108000821080008210800086C
:1000D000210800082108000821080008210800085C
:1000E000210800082108000821080008000000007D
:1000F0000000000000000000000000000000000000
:0C01000000000000000000005FF808F1A3
:10010C0010B5054C237833B9044B13B10448AFF345
:10011C0000800123237010BD0C00002000000000A3
:10012C00A42D000808B5034B1BB103490348AFF3DA
:10013C00008008BD0000000010000020A42D000865
:10014C0080B582B000AF78600B467B800022012125
:10015C000A4801F005FC7B885B009AB24FF0FF3334
:10016C007968074802F02CF901220121034801F0BB
:10017C00F7FB00BF0837BD4680BD00BF000C014037
:10018C007003002080B483B000AF78607B681B687C
:10019C00054A934202D1054B01221A7000BF0C375D
:1001AC00BD4680BC704700BF00240140F80200200F
:1001BC0080B582B000AF00F02FFB00F049F800F0E2
:1001CC0083F900F063F900F0DDF800F09DF800F021
:1001DC000FF91A4802F040FB4FF4B4721849194851
:1001EC0000F054FC00237B6007E0154A7B6800217B
:1001FC0022F813107B6801337B607B68B3F5B47F06
:10020C00F3DB01220121104801F0AAFB0F4B1B78F4
:10021C00DBB2002BFAD0002201210B4801F0A0FB2D
:10022C004FF4B4710648FFF78BFF012201210648F9
:10023C0001F096FB054B00221A70E7E7C80300207B
:10024C0028000020FC020020000C0140F8020020D5
:10025C0080B594B000AF07F128032822002118467E
:10026C0002F06EFD07F1140300221A605A609A60C6
:10027C00DA601A613B1D00221A605A609A60DA60DB
:10028C000123BB624FF48033FB6200233B630123E9
:10029C00BB6302237B644FF48033BB644FF4E013E5
:1002AC00FB6407F12803184601F072FB0346002B90
:1002BC0001D000F053F90F237B610223BB610023B3
:1002CC00FB614FF480633B6200237B6207F11403F4
:1002DC000221184601F0DEFD0346002B01D000F090
:1002EC003DF902237B604FF40043FB603B1D184635
:1002FC0001F02CFF0346002B01D000F02FF900BFBA
:10030C005037BD4680BD000080B584B000AF3B1DAA
:10031C0000221A605A609A60184B194A1A60174BDF
:10032C0000229A60154B00221A73144B00221A7586
:10033C00124B4FF40022DA61104B00225A600F4B23
:10034C0001221A610D4800F0C9FA0346002B01D0B6
:10035C0000F004F900237B600123BB600723FB60E2
:10036C003B1D1946054800F081FC0346002B01D0CB
:10037C0000F0F4F800BF1037BD4680BDFC02002031
:10038C000024014080B500AF174B184A1A60164B79
:10039C004FF482725A60144B00229A60124B002266
:1003AC00DA60114B00221A610F4B00225A610E4B7E
:1003BC004FF400729A610C4B0822DA610A4B00224E
:1003CC001A62094B00225A62074B00229A62064BB2
:1003DC000A22DA62044801F06FFF0346002B01D0B9
:1003EC0000F0BCF800BF80BD70030020003001405D
:1003FC0080B586B000AF07F1080300221A605A607E
:10040C009A60DA603B4600221A605A601D4B1E4A05
:10041C001A601C4B31225A601A4B00229A60194BFD
:10042C0040F69F72DA60174B00221A61154B0022BE
:10043C009A61144802F0C1F90346002B01D000F078
:10044C008DF84FF48053BB6007F1080319460D4833
:10045C0002F04CFA0346002B01D000F07FF8202369
:10046C003B6000237B603B461946064802F00AFCC1
:10047C000346002B01D000F071F800BF1837BD46C1
:10048C0080BD00BFC80300200004004080B582B0CE
:10049C0000AF0C4B5B690B4A43F001035361094BF2
:1004AC005B6903F001037B607B68002200210B2059
:1004BC0000F0ADFE0B2000F0C6FE00BF0837BD46B5
:1004CC0080BD00BF0010024080B588B000AF07F1BE
:1004DC00100300221A605A609A60DA601D4B9B6907
:1004EC001C4A43F0200393611A4B9B6903F02003D1
:1004FC00FB60FB68174B9B69164A43F0040393613E
:10050C00144B9B6903F00403BB60BB68114B9B69E4
:10051C00104A43F0080393610E4B9B6903F00803E8
:10052C007B607B68002201210B4801F019FA012342
:10053C003B6101237B610023BB610223FB6107F15B
:10054C0010031946044801F087F800BF2037BD4658
:10055C0080BD00BF00100240000C014080B400AF11
:10056C0072B600BF00BFFDE780B485B000AF154B7D
:10057C009B69144A43F001039361124B9B6903F08E
:10058C000103BB60BB680F4BDB690E4A43F0805321
:10059C00D3610C4BDB6903F080537B607B680A4BA7
:1005AC005B68FB60FB6823F0E063FB60FB6843F077
:1005BC000073FB60044AFB68536000BF1437BD46F0
:1005CC0080BC7047001002400000014080B588B02C
:1005DC0000AF786007F1100300221A605A609A602D
:1005EC00DA607B681B68284A934249D1274B9B6988
:1005FC00264A43F400739361244B9B6903F4007304
:10060C00FB60FB68214B9B69204A43F00403936118
:10061C001E4B9B6903F00403BB60BB6801233B6169
:10062C0003237B6107F110031946194801F014F8F4
:10063C00184B194A1A60174B00225A60154B0022AE
:10064C009A60144B8022DA60124B4FF480721A615C
:10065C00104B4FF480625A610E4B20229A610D4B65
:10066C000022DA610B4800F009FE0346002B01D092
:10067C00FFF774FF7B68074A1A62064A7B6853626D
:10068C0000BF2037BD4680BD002401400010024051
:10069C00000801402C0300200800024080B588B0FF
:1006AC0000AF786007F1100300221A605A609A605C
:1006BC00DA607B681B68154A934223D1144B9B6903
:1006CC00134A43F480539361114B9B6903F4805399
:1006DC00FB60FB680E4B9B690D4A43F0040393616E
:1006EC000B4B9B6903F00403BB60BB68A0233B610D
:1006FC0002237B610323FB6107F1100319460548B4
:10070C0000F0AAFF00BF2037BD4680BD003001407D
:10071C00001002400008014080B485B000AF786042
:10072C007B681B68094A93420BD1094BDB69084A69
:10073C0043F00203D361064BDB6903F00203FB6059
:10074C00FB6800BF1437BD4680BC704700040040F6
:10075C000010024080B400AF00BFFDE780B400AFD2
:10076C0000BFFDE780B400AF00BFFDE780B400AF71
:10077C0000BFFDE780B400AF00BFFDE780B400AF61
:10078C0000BFBD4680BC704780B400AF00BFBD4603
:10079C0080BC704780B400AF00BFBD4680BC7047C2
:1007AC0080B500AF00F07EF800BF80BD80B500AF13
:1007BC00024800F01DFE00BF80BD00BF2C030020CE
:1007CC0080B400AF00BFBD4680BC7047FFF7F8FF98
:1007DC000B480C490C4A002302E0D458C450043393
:1007EC00C4188C42F9D3094A094C002301E0136068
:1007FC000432A242FBD302F0ABFAFFF7D9FC7047EC
:10080C00000000200C000020E82D00080C00002047
:10081C0014040020FEE7000080B500AF084B1B68F5
:10082C00074A43F010031360032000F0E5FC0F208F
:10083C0000F008F8FFF798FE0023184680BD00BFB3
:10084C000020024080B582B000AF7860124B1A686D
:10085C00124B1B7819464FF47A73B3FBF1F3B2FBCE
:10086C00F3F3184600F0FDFC0346002B01D00123E6
:10087C000EE07B680F2B0AD8002279684FF0FF300E
:10088C0000F0C5FC064A7B681360002300E00123DE
:10089C0018460837BD4680BD000000200800002027
:1008AC000400002080B400AF054B1B781A46054BA2
:1008BC001B681344034A136000BFBD4680BC7047DD
:1008CC00080000201004002080B400AF024B1B680D
:1008DC001846BD4680BC70471004002080B586B019
:1008EC0000AF78600023FB7500233B610023BB60E5
:1008FC000023FB607B68002B01D10123BEE07B68E9
:10090C009B68002B7B689B6A002B09D17B680022BB
:10091C00DA627B68002283F824207868FFF756FEA1
:10092C00786800F0F5FA0346FB757B689B6A03F068
:10093C001003002B40F09980FB7D002B40F095803C
:10094C007B689B6A23F4885323F0020343F0020272
:10095C007B689A627B685A687B68DB691A437B68A0
:10096C001B7B5B001343BA681343BB607B689B68BB
:10097C00B3F5807F03D07B689B68012B02D14FF4C9
:10098C00807300E000233A6913433B617B681B7D55
:10099C00012B19D17B681B7B002B09D17B689B69D0
:1009AC00013B5A033B69134343F400633B610BE087
:1009BC007B689B6A43F020027B689A627B68DB6AE7
:1009CC0043F001027B68DA627B681B685B6823F486
:1009DC0069417B681B683A690A435A607B681B68EB
:1009EC009A68284B13407A681268B9680B43936075
:1009FC007B689B68B3F5807F03D07B689B68012B79
:100A0C0004D17B681B69013B1B05FB607B681B6881
:100A1C00DB6A23F470017B681B68FA680A43DA62AC
:100A2C007B681B689A68184B1340BA689A420BD1C2
:100A3C007B680022DA627B689B6A23F0030343F035
:100A4C0001027B689A6218E07B689B6A23F01203B0
:100A5C0043F010027B689A627B68DB6A43F0010208
:100A6C007B68DA620123FB7507E07B689B6A43F0C5
:100A7C0010027B689A620123FB75FB7D18461837C0
:100A8C00BD4680BDFDF7E1FFFE0E1FFF80B586B0B1
:100A9C0000AFF860B9607A600023FB75FB681B68D7
:100AAC00644A934204D0FB681B68634A934206D1A4
:100ABC00604B5B6803F47023002B40F0B380FB6841
:100ACC0093F82430012B01D10223AEE0FB68012204
:100ADC0083F82420F86800F0C1F90346FB75FB7D10
:100AEC00002B40F09A80FB689B6A23F4706323F020
:100AFC00010343F48072FB689A62FB681B684E4AE0
:100B0C00934205D14B4B5B6803F47023002B15D13A
:100B1C00FB689B6A23F48012FB689A62FB681B6873
:100B2C005B6803F48063002B26D0FB689B6A23F47C
:100B3C00405343F48052FB689A621DE0FB689B6A49
:100B4C0043F48012FB689A62FB681B68394A934233
:100B5C0004D0FB681B68384A93420DD1354B5B6857
:100B6C0003F48063002B07D0FB689B6A23F440538B
:100B7C0043F48052FB689A62FB689B6A03F48053CF
:100B8C00002B06D0FB68DB6A23F00602FB68DA62F6
:100B9C0002E0FB680022DA62FB68002283F8242062
:100BAC00FB681B6A254A9A62FB681B6A244ADA6254
:100BBC00FB681B6A234A1A63FB681B686FF002020E
:100BCC001A60FB681B689A68FB681B6842F48072A9
:100BDC009A60FB68186AFB681B684C331946BA6844
:100BEC007B6800F0A5FBFB681B689B6803F4602323
:100BFC00B3F5602F08D1FB681B689A68FB681B680B
:100C0C0042F4A0029A600FE0FB681B689A68FB68CC
:100C1C001B6842F480129A6006E0FB68002283F89D
:100C2C00242001E00123FB75FB7D18461837BD46D7
:100C3C0080BD00BF00240140002801409F0F000828
:100C4C001B1000083710000880B483B000AF786028
:100C5C0000BF0C37BD4680BC704780B483B000AF7A
:100C6C00786000BF0C37BD4680BC704780B485B03F
:100C7C0000AF786039600023FB730023BB607B6896
:100C8C0093F82430012B01D10223DCE07B68012294
:100C9C0083F824203B685B68062B1CD87B681B6898
:100CAC00596B3B685A6813469B001344053B1F2243
:100CBC0002FA03F3DB4319403B6818683B685A6837
:100CCC0013469B001344053B00FA03F27B681B6838
:100CDC000A435A633CE03B685B680C2B1CD87B686E
:100CEC001B68196B3B685A6813469B001344233BE3
:100CFC001F2202FA03F3DB4319403B6818683B6878
:100D0C005A6813469B001344233B00FA03F27B689A
:100D1C001B680A431A631BE07B681B68D96A3B6833
:100D2C005A6813469B001344413B1F2202FA03F3FB
:100D3C00DB4319403B6818683B685A6813469B00B4
:100D4C001344413B00FA03F27B681B680A43DA62E6
:100D5C003B681B68092B1CD97B681B68D9683B68EE
:100D6C001A6813465B0013441E3B072202FA03F376
:100D7C00DB4319403B6898683B681A6813465B0074
:100D8C0013441E3B00FA03F27B681B680A43DA60CB
:100D9C0019E07B681B6819693B681A6813465B008D
:100DAC001344072202FA03F3DB4319403B689868AB
:100DBC003B681A6813465B00134400FA03F27B6825
:100DCC001B680A431A613B681B68102B03D03B68F5
:100DDC001B68112B32D17B681B681D4A934225D1AD
:100DEC007B681B689B6803F40003002B26D17B688F
:100DFC001B689A687B681B6842F400029A603B6827
:100E0C001B68102B1AD1134B1B68134AA2FB03232C
:100E1C009A0C13469B0013445B00BB6002E0BB685A
:100E2C00013BBB60BB68002BF9D107E07B689B6A78
:100E3C0043F020027B689A620123FB737B680022DB
:100E4C0083F82420FB7B18461437BD4680BC7047C2
:100E5C00002401400000002083DE1B4380B584B0D9
:100E6C0000AF78600023FB600023BB607B681B68CD
:100E7C009B6803F00103012B40D07B681B689A68C8
:100E8C007B681B6842F001029A601F4B1B681F4A6B
:100E9C00A2FB03239B0CBB6002E0BB68013BBB6065
:100EAC00BB68002BF9D1FFF70FFDF8601FE0FFF7CF
:100EBC000BFD0246FB68D31A022B18D97B681B6802
:100ECC009B6803F00103012B11D07B689B6A43F0F4
:100EDC0010027B689A627B68DB6A43F001027B68D4
:100EEC00DA627B68002283F82420012307E07B6808
:100EFC001B689B6803F00103012BD8D10023184613
:100F0C001037BD4680BD00BF0000002083DE1B43B0
:100F1C0080B584B000AF78600023FB607B681B68F1
:100F2C009B6803F00103012B2ED17B681B689A6828
:100F3C007B681B6822F001029A60FFF7C5FCF86021
:100F4C001BE0FFF7C1FC0246FB68D31A022B14D935
:100F5C007B681B689B6803F00103012B0DD17B6838
:100F6C009B6A43F010027B689A627B68DB6A43F0F1
:100F7C0001027B68DA62012307E07B681B689B68CF
:100F8C0003F00103012BDCD0002318461037BD46BB
:100F9C0080BD80B584B000AF78607B685B6AFB6015
:100FAC00FB689B6A03F05003002B27D1FB689B6AFC
:100FBC0043F40072FB689A62FB681B689B6803F43D
:100FCC006023B3F5602F15D1FB681B7B002B11D16F
:100FDC00FB689B6A23F48072FB689A62FB689B6ACD
:100FEC0003F48053002B05D1FB689B6A43F001028C
:100FFC00FB689A62F868FFF7C5F804E0FB681B6AA7
:10100C001B6B7868984700BF1037BD4680BD80B514
:10101C0084B000AF78607B685B6AFB60F868FFF7B0
:10102C0013FE00BF1037BD4680BD80B584B000AF45
:10103C0078607B685B6AFB60FB689B6A43F04002EC
:10104C00FB689A62FB68DB6A43F00402FB68DA62B5
:10105C00F868FFF702FE00BF1037BD4680BD0000E8
:10106C0080B485B000AF78607B6803F00703FB6049
:10107C000C4BDB68BB60BA684FF6FF031340BB60D8
:10108C00FB681A02BB68134343F0BF6343F400339D
:10109C00BB60044ABB68D36000BF1437BD4680BC3C
:1010AC00704700BF00ED00E080B400AF044BDB687C
:1010BC001B0A03F007031846BD4680BC704700BFEF
:1010CC0000ED00E080B483B000AF0346FB7197F9EC
:1010DC000730002B0BDBFB7903F01F02064997F955
:1010EC0007305B09012000FA02F241F8232000BF0F
:1010FC000C37BD4680BC704700E100E080B483B083
:10110C0000AF03463960FB7197F90730002B0ADBFF
:10111C003B68DAB20C4997F907301201D2B20B4492
:10112C0083F800230AE03B68DAB20849FB7903F044
:10113C000F03043B1201D2B20B441A7600BF0C37DA
:10114C00BD4680BC704700BF00E100E000ED00E050
:10115C0080B489B000AFF860B9607A60FB6803F0C6
:10116C000703FB61FB69C3F10703042B28BF0423AE
:10117C00BB61FB690433062B02D9FB69033B00E01E
:10118C0000237B614FF0FF32BB6902FA03F3DA43B1
:10119C00BB681A407B699A404FF0FF317B6901FABA
:1011AC0003F3D9437B680B40134318462437BD46E1
:1011BC0080BC704780B582B000AF78607B68013B23
:1011CC00B3F1807F01D301230FE00A4A7B68013B16
:1011DC0053600F214FF0FF30FFF790FF054B0022BB
:1011EC009A60044B07221A60002318460837BD4644
:1011FC0080BD00BF10E000E080B582B000AF786029
:10120C007868FFF72DFF00BF0837BD4680BD80B55D
:10121C0086B000AF0346B9607A60FB7300237B6134
:10122C00FFF742FF78617A68B9687869FFF790FF39
:10123C00024697F90F3011461846FFF75FFF00BFC3
:10124C001837BD4680BD80B582B000AF0346FB7138
:10125C0097F907301846FFF735FF00BF0837BD4632
:10126C0080BD80B582B000AF78607868FFF7A2FFD0
:10127C00034618460837BD4680BD000080B485B0D3
:10128C0000AF78600023FB607B68002B01D1012349
:10129C0043E07B681B681A46224B1344224AA2FB8C
:1012AC0003231B099A007B681A647B681F4ADA6364
:1012BC007B68022283F821207B681B681B68FB601B
:1012CC00FB6823F47F5323F03003FB607B685A6880
:1012DC007B689B681A437B68DB681A437B681B69D5
:1012EC001A437B685B691A437B689B691A437B686A
:1012FC00DB691343FA681343FB607B681B68FA686D
:10130C001A607B6800229A637B68012283F8212093
:10131C007B68002283F82020002318461437BD4632
:10132C0080BC7047F8FFFDBFCDCCCCCC0000024098
:10133C0080B586B000AFF860B9607A603B6000237E
:10134C00FB75FB6893F82030012B01D102234BE095
:10135C00FB68012283F82020FB6893F82130DBB274
:10136C00012B3AD1FB68022283F82120FB68002272
:10137C009A63FB681B681A68FB681B6822F0010201
:10138C001A603B687A68B968F86800F037F9FB684E
:10139C00DB6A002B08D0FB681B681A68FB681B68AB
:1013AC0042F00E021A600FE0FB681B681A68FB68BB
:1013BC001B6822F004021A60FB681B681A68FB6841
:1013CC001B6842F00A021A60FB681B681A68FB680B
:1013DC001B6842F001021A6005E0FB68002283F8EA
:1013EC0020200223FB75FB7D18461837BD4680BDB7
:1013FC0080B584B000AF78607B68DB6B1B68FB60EA
:10140C007B681B681B68BB607B681B6C04229A4062
:10141C00FB681340002B4FD0BB6803F00403002B78
:10142C004AD07B681B681B6803F02003002B07D194
:10143C007B681B681A687B681B6822F004021A60C0
:10144C007B681B68664A934229D07B681B68654A97
:10145C00934222D07B681B68634A93421AD07B6804
:10146C001B68624A934212D07B681B68604A9342A5
:10147C000AD07B681B685F4A934202D14FF4800309
:10148C000EE04FF080630BE04FF4802308E04FF444
:10149C00804305E04FF4806302E0402300E0042326
:1014AC00554A53607B68DB6A002B00F094807B68A4
:1014BC00DB6A786898478EE07B681B6C02229A4046
:1014CC00FB681340002B56D0BB6803F00203002BC3
:1014DC0051D07B681B681B6803F02003002B0BD1D9
:1014EC007B681B681A687B681B6822F00A021A600A
:1014FC007B68012283F821207B681B68384A934261
:10150C0029D07B681B68374A934222D07B681B68C2
:10151C00354A93421AD07B681B68344A934212D0E6
:10152C007B681B68324A93420AD07B681B68314A3D
:10153C00934202D14FF400130EE04FF000730BE016
:10154C004FF4003308E04FF4005305E04FF4007300
:10155C0002E0202300E00223274A53607B6800222C
:10156C0083F820207B689B6A002B34D07B689B6AB5
:10157C00786898472FE07B681B6C08229A40FB68C0
:10158C001340002B28D0BB6803F00803002B23D09A
:10159C007B681B681A687B681B6822F00E021A6055
:1015AC007B681A6C7B68DB6B012101FA02F25A60D2
:1015BC007B6801229A637B68012283F821207B6877
:1015CC00002283F820207B681B6B002B04D07B68E7
:1015DC001B6B7868984700BF00BF1037BD4680BDB5
:1015EC00080002401C00024030000240440002404F
:1015FC00580002406C0002400000024080B485B0EC
:10160C0000AFF860B9607A603B60FB681A6CFB68ED
:10161C00DB6B012101FA02F25A60FB681B683A6825
:10162C005A60FB685B68102B08D1FB681B687A68F2
:10163C009A60FB681B68BA68DA6007E0FB681B6895
:10164C00BA689A60FB681B687A68DA6000BF143766
:10165C00BD4680BC7047000080B48BB000AF786092
:10166C00396000237B6200233B6269E101227B6AC3
:10167C0002FA03F3FB613B681B68FA691340BB6118
:10168C00BA69FB699A4240F058813B685B689A4A98
:10169C0093425ED0984A934275D8984A934258D058
:1016AC00964A93426FD8964A934252D0944A9342A8
:1016BC0069D8944A93424CD0924A934263D8924A46
:1016CC00934246D0904A93425DD8122B2AD8122BC3
:1016DC0059D801A252F823F05F17000839170008F7
:1016EC004B1700088D170008931700089317000874
:1016FC009317000893170008931700089317000816
:10170C009317000893170008931700089317000805
:10171C009317000893170008931700084117000847
:10172C0055170008794A934213D02CE03B68DB68CC
:10173C003B6229E03B68DB6804333B6224E03B6896
:10174C00DB6808333B621FE03B68DB680C333B62B1
:10175C001AE03B689B68002B02D104233B6213E028
:10176C003B689B68012B05D108233B627B68FA69B7
:10177C001A6109E008233B627B68FA695A6103E04D
:10178C0000233B6200E000BFBB69FF2B01D87B68E4
:10179C0001E07B6804337B61BB69FF2B02D87B6A59
:1017AC009B0002E07B6A083B9B003B617B691A68EB
:1017BC000F213B6901FA03F3DB431A40396A3B6999
:1017CC0001FA03F31A437B691A603B685B6803F008
:1017DC008053002B00F0B1804D4B9B694C4A43F079
:1017EC00010393614A4B9B6903F00103BB60BB6827
:1017FC00484A7B6A9B08023352F82330FB607B6AB1
:10180C0003F003039B000F2202FA03F3DB43FA6895
:10181C001340FB607B68404A934213D07B683F4A7D
:10182C0093420DD07B683E4A934207D07B683D4A79
:10183C00934201D1032306E0042304E0022302E0D7
:10184C00012300E000237A6A02F003029200934025
:10185C00FA681343FB602F497B6A9B080233FA68D2
:10186C0041F823203B685B6803F48013002B06D0FF
:10187C002D4B9A682C49BB6913438B6006E02A4BAD
:10188C009A68BB69DB43284913408B603B685B68F3
:10189C0003F40013002B06D0234BDA682249BB69F2
:1018AC001343CB6006E0204BDA68BB69DB431E496F
:1018BC001340CB603B685B6803F40033002B06D00D
:1018CC00194B5A681849BB6913434B6006E0164B19
:1018DC005A68BB69DB43144913404B603B685B6837
:1018EC0003F48033002B21D00F4B1A680E49BB69CF
:1018FC0013430B6021E000BF0000321000003110D8
:10190C000000221000002110000012100000111025
:10191C00001002400000014000080140000C014092
:10192C000010014000140140000401400B4B1A68E8
:10193C00BB69DB43094913400B607B6A01337B6253
:10194C003B681A687B6A22FA03F3002B7FF48EAE95
:10195C0000BF00BF2C37BD4680BC7047000401405F
:10196C0080B483B000AF78600B467B8013467B70ED
:10197C007B78002B03D07A887B681A6103E07B8824
:10198C001A047B681A6100BF0C37BD4680BC7047D7
:10199C0080B586B000AF78607B68002B01D1012345
:1019AC0072E27B681B6803F00103002B00F0878058
:1019BC00924B5B6803F00C03042B0CD08F4B5B68D1
:1019CC0003F00C03082B12D18C4B5B6803F48033AF
:1019DC00B3F5803F0BD1894B1B6803F40033002B0C
:1019EC006CD07B685B68002B68D101234CE27B6870
:1019FC005B68B3F5803F06D1804B1B687F4A43F48C
:101A0C00803313602EE07B685B68002B0CD17B4B22
:101A1C001B687A4A23F480331360784B1B68774A2F
:101A2C0023F4802313601DE07B685B68B3F5A02F63
:101A3C000CD1724B1B68714A43F4802313606F4BBB
:101A4C001B686E4A43F4803313600BE06B4B1B68CE
:101A5C006A4A23F480331360684B1B68674A23F48B
:101A6C00802313607B685B68002B13D0FEF72CFF80
:101A7C00386108E0FEF728FF02463B69D31A642B55
:101A8C0001D9032300E25D4B1B6803F40033002BE8
:101A9C00F0D014E0FEF718FF386108E0FEF714FFF1
:101AAC0002463B69D31A642B01D90323ECE1534B57
:101ABC001B6803F40033002BF0D100E000BF7B68FF
:101ACC001B6803F00203002B63D04C4B5B6803F0E4
:101ADC000C03002B0BD0494B5B6803F00C03082B59
:101AEC001CD1464B5B6803F48033002B16D1434B5F
:101AFC001B6803F00203002B05D07B681B69012BCC
:101B0C0001D00123C0E13D4B1B6823F0F8027B6838
:101B1C005B69DB00394913430B603AE07B681B6956
:101B2C00002B20D0364B01221A60FEF7CDFE386117
:101B3C0008E0FEF7C9FE02463B69D31A022B01D915
:101B4C000323A1E12D4B1B6803F00203002BF0D003
:101B5C002A4B1B6823F0F8027B685B69DB00274982
:101B6C0013430B6015E0264B00221A60FEF7ACFE07
:101B7C00386108E0FEF7A8FE02463B69D31A022B37
:101B8C0001D9032380E11D4B1B6803F00203002BDA
:101B9C00F0D17B681B6803F00803002B3AD07B68FC
:101BAC009B69002B19D0174B01221A60FEF78CFE93
:101BBC00386108E0FEF788FE02463B69D31A022B17
:101BCC0001D9032360E10D4B5B6A03F00203002B88
:101BDC00F0D0012000F09CFA1CE00A4B00221A60A5
:101BEC00FEF772FE38610FE0FEF76EFE02463B69AF
:101BFC00D31A022B08D9032346E100BF0010024080
:101C0C000000424280044242924B5B6A03F00203A2
:101C1C00002BE9D17B681B6803F00403002B00F058
:101C2C00A6800023FB758B4BDB6903F08053002BE4
:101C3C000DD1884BDB69874A43F08053D361854BC8
:101C4C00DB6903F08053BB60BB680123FB75824BDF
:101C5C001B6803F48073002B18D17F4B1B687E4AE2
:101C6C0043F480731360FEF72FFE386108E0FEF733
:101C7C002BFE02463B69D31A642B01D9032303E1E3
:101C8C00754B1B6803F48073002BF0D07B68DB680A
:101C9C00012B06D16F4B1B6A6E4A43F00103136292
:101CAC002DE07B68DB68002B0CD16A4B1B6A694A00
:101CBC0023F001031362674B1B6A664A23F004038B
:101CCC0013621CE07B68DB68052B0CD1614B1B6A33
:101CDC00604A43F0040313625E4B1B6A5D4A43F097
:101CEC00010313620BE05B4B1B6A5A4A23F001039E
:101CFC001362584B1B6A574A23F0040313627B6828
:101D0C00DB68002B15D0FEF7DFFD38610AE0FEF72B
:101D1C00DBFD02463B69D31A41F28832934201D96A
:101D2C000323B1E04B4B1B6A03F00203002BEED0F4
:101D3C0014E0FEF7C9FD38610AE0FEF7C5FD024666
:101D4C003B69D31A41F28832934201D903239BE0B9
:101D5C00404B1B6A03F00203002BEED1FB7D012BE1
:101D6C0005D13C4BDB693B4A23F08053D3617B6844
:101D7C00DB69002B00F08780364B5B6803F00C03AB
:101D8C00082B61D07B68DB69022B46D1334B0022D8
:101D9C001A60FEF799FD386108E0FEF795FD0246E2
:101DAC003B69D31A022B01D903236DE0294B1B6825
:101DBC0003F00073002BF0D17B681B6AB3F5803FF6
:101DCC0008D1244B5B6823F400327B689B68214963
:101DDC0013434B601F4B5B6823F474127B68196AC6
:101DEC007B685B6A0B431B4913434B601B4B012203
:101DFC001A60FEF769FD386108E0FEF765FD0246E2
:101E0C003B69D31A022B01D903233DE0114B1B680C
:101E1C0003F00073002BF0D035E0104B00221A6059
:101E2C00FEF752FD386108E0FEF74EFD02463B69B5
:101E3C00D31A022B01D9032326E0064B1B6803F0AF
:101E4C000073002BF0D11EE07B68DB69012B07D1FE
:101E5C00012319E000100240007000406000424273
:101E6C000B4B5B68FB60FB6803F480327B681B6A7E
:101E7C009A4206D1FB6803F470127B685B6A9A4243
:101E8C0001D0012300E0002318461837BD4680BD61
:101E9C000010024080B584B000AF786039607B6878
:101EAC00002B01D10123D0E06A4B1B6803F0070320
:101EBC003A689A4210D9674B1B6823F007026549B0
:101ECC003B6813430B60634B1B6803F007033A68D2
:101EDC009A4201D00123B8E07B681B6803F002032F
:101EEC00002B20D07B681B6803F00403002B05D06B
:101EFC00594B5B68584A43F4E06353607B681B683A
:101F0C0003F00803002B05D0534B5B68524A43F493
:101F1C0060535360504B5B6823F0F0027B689B6806
:101F2C004D4913434B607B681B6803F00103002B86
:101F3C0040D07B685B68012B07D1474B1B6803F4CF
:101F4C000033002B15D101237FE07B685B68022BEB
:101F5C0007D1414B1B6803F00073002B09D10123FF
:101F6C0073E03D4B1B6803F00203002B01D10123EE
:101F7C006BE0394B5B6823F003027B685B68364986
:101F8C0013434B60FEF7A0FCF8600AE0FEF79CFCE4
:101F9C000246FB68D31A41F28832934201D90323DB
:101FAC0053E02D4B5B6803F00C027B685B689B0075
:101FBC009A42EBD1274B1B6803F007033A689A420D
:101FCC0010D2244B1B6823F0070222493B681343B1
:101FDC000B60204B1B6803F007033A689A4201D050
:101FEC00012332E07B681B6803F00403002B08D04C
:101FFC00194B5B6823F4E0627B68DB68164913437A
:10200C004B607B681B6803F00803002B09D0124B54
:10201C005B6823F460527B681B69DB000E49134339
:10202C004B6000F021F802460B4B5B681B0903F078
:10203C000F030A49CB5C22FA03F3094A1360094BDC
:10204C001B681846FEF7FEFB002318461037BD46EA
:10205C0080BD00BF0020024000100240BC2D0008D3
:10206C00000000200400002080B487B000AF0023E3
:10207C00FB600023BB6000237B6100237B6000239B
:10208C003B611E4B5B68FB60FB6803F00C03042B8D
:10209C0002D0082B03D027E0194B3B6127E0FB68EB
:1020AC009B0C03F00F03174AD35C7B60FB6803F4B3
:1020BC008033002B10D0114B5B685B0C03F00103D9
:1020CC00114AD35CBB607B680D4A03FB02F2BB6810
:1020DC00B2FBF3F37B6104E07B680C4A02FB03F375
:1020EC007B617B693B6102E0054B3B6100BF3B6957
:1020FC0018461C37BD4680BC704700BF001002401C
:10210C0000127A00CC2D0008DC2D000800093D00DF
:10211C0080B485B000AF78600A4B1B680A4AA2FBFA
:10212C0003235B0A7A6802FB03F3FB6000BFFB68C6
:10213C005A1EFA60002BF9D100BF00BF1437BD4600
:10214C0080BC704700000020D34D621080B586B073
:10215C0000AF786000233B610023FB607B681B6849
:10216C0003F00103002B7DD00023FB754F4BDB6983
:10217C0003F08053002B0DD14C4BDB694B4A43F0E1
:10218C008053D361494BDB6903F08053BB60BB6860
:10219C000123FB75464B1B6803F48073002B18D18D
:1021AC00434B1B68424A43F480731360FEF78CFB6D
:1021BC00386108E0FEF788FB02463B69D31A642BB2
:1021CC0001D903236DE03A4B1B6803F48073002B99
:1021DC00F0D0364B1B6A03F44073FB60FB68002B9A
:1021EC002ED07B685B6803F44073FA689A4227D060
:1021FC002E4B1B6A23F44073FB602E4B01221A609A
:10220C002C4B00221A60294AFB681362FB6803F00E
:10221C000103002B14D0FEF757FB38610AE0FEF7E0
:10222C0053FB02463B69D31A41F28832934201D9DF
:10223C00032336E01D4B1B6A03F00203002BEED088
:10224C001A4B1B6A23F440727B685B681749134373
:10225C000B62FB7D012B05D1144BDB69134A23F078
:10226C008053D3617B681B6803F00203002B08D0FA
:10227C000E4B5B6823F440427B689B680B4913430D
:10228C004B607B681B6803F01003002B08D0074BD6
:10229C005B6823F480027B68DB68044913434B6062
:1022AC00002318461837BD4680BD00BF0010024001
:1022BC00007000404004424280B582B000AF7860AC
:1022CC007B68002B01D1012376E07B685B6A002BD5
:1022DC0008D17B685B68B3F5827F09D07B680022EC
:1022EC00DA6105E07B6800221A617B6800225A6182
:1022FC007B6800229A627B6893F85130DBB2002B2A
:10230C0006D17B68002283F850207868FEF7C6F966
:10231C007B68022283F851207B681B681A687B68F3
:10232C001B6822F040021A607B685B6803F48272BF
:10233C007B689B6803F404431A437B68DB6803F4F3
:10234C0000631A437B681B6903F002031A437B6822
:10235C005B6903F001031A437B689B6903F4007308
:10236C001A437B68DB6903F038031A437B681B6AEA
:10237C0003F0800342EA03017B689B6A03F400527A
:10238C007B681B680A431A607B689B691A0C7B6824
:10239C001B6802F004025A607B681B68DA697B6870
:1023AC001B6822F40062DA617B6800225A657B6844
:1023BC00012283F85120002318460837BD4680BD02
:1023CC0080B588B000AFF860B9603B601346FB8005
:1023DC00FEF77AFAF861FB887B83FB6893F851303F
:1023EC00DBB2012B01D002232AE1BB68002B02D007
:1023FC00FB88002B01D1012322E1FB6893F85030BC
:10240C00012B01D102231BE1FB68012283F8502030
:10241C00FB68032283F85120FB6800225A65FB6895
:10242C00BA681A63FB68FA889A86FB68FA88DA86B7
:10243C00FB6800229A63FB6800229A87FB680022E3
:10244C00DA87FB6800225A64FB6800221A64FB6876
:10245C009B68B3F5004F0FD1FB681B681A68FB68CB
:10246C001B6822F040021A60FB681B681A68FB6844
:10247C001B6842F480421A60FB681B681B6803F0FF
:10248C004003402B07D0FB681B681A68FB681B686D
:10249C0042F040021A60FB68DB68B3F5006F52D162
:1024AC00FB685B68002B02D07B8B012B45D1FB6852
:1024BC001B6B1A88FB681B68DA60FB681B6B9A1C29
:1024CC00FB681A63FB68DB8E9BB2013B9AB2FB681C
:1024DC00DA8632E0FB681B689B6803F00203022B70
:1024EC0012D1FB681B6B1A88FB681B68DA60FB68EF
:1024FC001B6B9A1CFB681A63FB68DB8E9BB2013B5F
:10250C009AB2FB68DA8618E0FEF7DEF90246FB6940
:10251C00D31A3A689A4203D83B68B3F1FF3F02D111
:10252C003B68002B09D1FB68012283F85120FB6822
:10253C00002283F85020032382E0FB68DB8E9BB2E1
:10254C00002BC7D153E0FB685B68002B02D07B8B60
:10255C00012B47D1FB681A6BFB681B680C33127894
:10256C001A70FB681B6B5A1CFB681A63FB68DB8ECA
:10257C009BB2013B9AB2FB68DA8633E0FB681B68BE
:10258C009B6803F00203022B13D1FB681A6BFB68E8
:10259C001B680C3312781A70FB681B6B5A1CFB6897
:1025AC001A63FB68DB8E9BB2013B9AB2FB68DA863E
:1025BC0018E0FEF789F90246FB69D31A3A689A4289
:1025CC0003D83B68B3F1FF3F02D13B68002B09D124
:1025DC00FB68012283F85120FB68002283F850200D
:1025EC0003232DE0FB68DB8E9BB2002BC6D1FA696E
:1025FC003968F86800F0B0F80346002B02D0FB688D
:10260C0020225A65FB689B68002B0AD100237B6152
:10261C00FB681B68DB687B61FB681B689B687B61E4
:10262C007B69FB68012283F85120FB68002283F848
:10263C005020FB685B6D002B01D0012300E00023D0
:10264C0018462037BD4680BD80B588B000AFF86015
:10265C00B9603B601346FB71FEF736F90246BB6A64
:10266C009B1A3A681344FB61FEF72EF9B861394B9B
:10267C001B685B011B0DFA6902FB03F37B6154E0E1
:10268C003B68B3F1FF3F50D0FEF71EF90246BB6921
:10269C00D31AFA699A4202D9FB69002B3DD1FB6827
:1026AC001B685A68FB681B6822F0E0025A60FB68E2
:1026BC005B68B3F5827F11D1FB689B68B3F5004F63
:1026CC0004D0FB689B68B3F5806F07D1FB681B686F
:1026DC001A68FB681B6822F040021A60FB689B6A50
:1026EC00B3F5005F0FD1FB681B681A68FB681B68A9
:1026FC0022F400521A60FB681B681A68FB681B689E
:10270C0042F400521A60FB68012283F85120FB68E6
:10271C00002283F85020032317E07B69002B01D1A2
:10272C000023FB617B69013B7B61FB681B689A683A
:10273C00BB681340BA689A420CBF01230023DBB27A
:10274C001A46FB799A429BD1002318462037BD4686
:10275C0080BD00BF0000002080B586B002AFF860DD
:10276C00B9607A607B680093BB6801220221F8682B
:10277C00FFF76AFF0346002B07D0FB685B6D43F045
:10278C002002FB685A65032313E07B680093BB6847
:10279C0000228021F868FFF757FF0346002B07D073
:1027AC00FB685B6D43F02002FB685A65032300E075
:1027BC00002318461037BD4680BD80B582B000AFEF
:1027CC0078607B68002B01D1012341E07B6893F892
:1027DC003D30DBB2002B06D17B68002283F83C2015
:1027EC007868FDF799FF7B68022283F83D207B68AF
:1027FC001A687B6804331946104600F03FF97B6871
:10280C00012283F846207B68012283F83E207B68F6
:10281C00012283F83F207B68012283F840207B68EB
:10282C00012283F841207B68012283F842207B68D7
:10283C00012283F843207B68012283F844207B68C3
:10284C00012283F845207B68012283F83D20002378
:10285C0018460837BD4680BD80B485B000AF78609F
:10286C007B6893F83D30DBB2012B01D0012332E0C1
:10287C007B68022283F83D207B681B68184A9342D0
:10288C000ED07B681B68B3F1804F09D07B681B6846
:10289C00144A934204D07B681B68134A934211D1AB
:1028AC007B681B689B6803F00703FB60FB68062BC7
:1028BC0010D07B681B681A687B681B6842F00102A9
:1028CC001A6007E07B681B681A687B681B6842F01B
:1028DC0001021A60002318461437BD4680BC7047AD
:1028EC00002C0140000400400008004080B584B07A
:1028FC0000AF786039600023FB737B6893F83C3041
:10290C00012B01D10223B4E07B68012283F83C2027
:10291C007B68022283F83D207B681B689B68BB6048
:10292C00BB6823F07703BB60BB6823F47F43BB60B9
:10293C007B681B68BA689A603B681B68B3F5005FDC
:10294C003ED0B3F5005F00F28780B3F5805F00F0F6
:10295C008680B3F5805F7FD8702B1AD0702B7BD814
:10296C00602B50D0602B77D8502B3CD0502B73D889
:10297C00402B58D0402B6FD8302B64D0302B6BD8D9
:10298C00202B60D0202B67D8002B5CD0102B5AD07A
:10299C0062E07B6818683B6899683B685A683B68DA
:1029AC00DB6800F050F97B681B689B68BB60BB68F8
:1029BC0043F07703BB607B681B68BA689A604FE092
:1029CC007B6818683B6899683B685A683B68DB68A9
:1029DC0000F039F97B681B689A687B681B6842F4C5
:1029EC0080429A603CE07B6818683B6859683B6899
:1029FC00DB681A4600F0B0F87B681B68502118465B
:102A0C0000F007F92CE07B6818683B6859683B6854
:102A1C00DB681A4600F0CEF87B681B68602118460C
:102A2C0000F0F7F81CE07B6818683B6859683B6855
:102A3C00DB681A4600F090F87B681B68402118464A
:102A4C0000F0E7F80CE07B681A683B681B681946D5
:102A5C00104600F0DEF803E00123FB7300E000BF3A
:102A6C007B68012283F83D207B68002283F83C20A0
:102A7C00FB7B18461037BD4680BD000080B485B086
:102A8C0000AF786039607B681B68FB607B682F4AFD
:102A9C0093420BD07B68B3F1804F07D07B682C4AF4
:102AAC00934203D07B682B4A934208D1FB6823F0F6
:102ABC007003FB603B685B68FA681343FB607B68E0
:102ACC00224A93420BD07B68B3F1804F07D07B68CE
:102ADC001F4A934203D07B681E4A934208D1FB687D
:102AEC0023F44073FB603B68DB68FA681343FB60BC
:102AFC00FB6823F080023B685B691343FB607B68D7
:102B0C00FA681A603B689A687B68DA623B681A68F4
:102B1C007B689A627B680D4A934203D13B681A69C1
:102B2C007B681A637B6801225A617B681B6903F01E
:102B3C000103002B05D07B681B6923F001027B6825
:102B4C001A6100BF1437BD4680BC7047002C014091
:102B5C00000400400008004080B487B000AFF8606B
:102B6C00B9607A60FB681B6A7B61FB681B6A23F0A7
:102B7C000102FB681A62FB689B693B613B6923F0AD
:102B8C00F0033B617B681B013A6913433B617B6932
:102B9C0023F00A037B617A69BB6813437B61FB6892
:102BAC003A699A61FB687A691A6200BF1C37BD46A4
:102BBC0080BC704780B487B000AFF860B9607A60B1
:102BCC00FB681B6A7B61FB681B6A23F01002FB68C5
:102BDC001A62FB689B693B613B6923F470433B6160
:102BEC007B681B033A6913433B617B6923F0A003A9
:102BFC007B61BB681B017A6913437B61FB683A6993
:102C0C009A61FB687A691A6200BF1C37BD4680BCAA
:102C1C00704780B485B000AF786039607B689B6882
:102C2C00FB60FB6823F07003FB603A68FB6813439E
:102C3C0043F00703FB607B68FA689A6000BF1437A7
:102C4C00BD4680BC704780B487B000AFF860B960F7
:102C5C007A603B60FB689B687B617B6923F47F43F4
:102C6C007B613B681A027B681A43BB6813437A6921
:102C7C0013437B61FB687A699A6000BF1C37BD46C1
:102C8C0080BC704780B485B000AF786039607B68D9
:102C9C0093F83C30012B01D1022346E07B680122E2
:102CAC0083F83C207B68022283F83D207B681B68FC
:102CBC005B68FB607B681B689B68BB60FB6823F0F0
:102CCC007003FB603B681B68FA681343FB607B680E
:102CDC001B68FA685A607B681B68164A93420ED0D0
:102CEC007B681B68B3F1804F09D07B681B68124A64
:102CFC00934204D07B681B68104A93420CD1BB688A
:102D0C0023F08003BB603B685B68BA681343BB600D
:102D1C007B681B68BA689A607B68012283F83D2047
:102D2C007B68002283F83C20002318461437BD46EC
:102D3C0080BC7047002C014000040040000800409B
:102D4C0003460244934200D1704703F8011BF9E794
:102D5C0070B500260C4D0D4C641BA410A64209D175
:102D6C0000F01AF800260A4D0A4C641BA410A64267
:102D7C0005D170BD55F8043B98470136EEE755F880
:102D8C00043B98470136F2E7E02D0008E02D0008DF
:102D9C00E02D0008E42D0008F8B500BFF8BC08BC15
:102DAC009E467047F8B500BFF8BC08BC9E467047FD
:102DBC0000000000000000000102030406070809DF
:102DCC0002030405060708090A0B0C0D0E0F101060
:042DDC0001020000F0
:042DE00031010008B5
:042DE4000D010008D5
:0C2DE80000127A00100000000100000042
:04000005080007D90F
:00000001FF
